:03000000020230C9
:0C023000787FE4F6D8FD75812802027783
:100433000E08000300040005000600070008000979
:0C044300021B000002170000021900005C
:0500030012000E80FE5A
:0D000E0012001B7F807E251202BC0204AD93
:03000B000203A647
:1003A600C0E0C0D075D000C000C006851D8C851F7A
:1003B6008A0518E51870020517E51C25E02408F8DB
:1003C600E6FE08E6B5180AE517B5060575A000802D
:1003D6000FE518640A45177007F517F5188528A064
:0903E600D006D000D0D0D0E032E6
:030023000201A334
:1001A300C0E0C0F0C083C082C0D075D000C000C022
:1001B30001C002C003C004C005C006C00730985286
:1001C300859916C298E5161460322499601924F7AC
:1001D300601024F8601B1460132406703512001B92
:1001E30080301204F1800D1204ED80081204E980BE
:1001F3000312001F751B00751C008016051CE51CEF
:100203007002051BAE1BFF7C007D031200538C1B89
:100213008D1CD007D006D005D004D003D002D00166
:0D022300D000D0D0D082D083D0F0D0E03217
:1002BC0053877F759850438E04EF8EF01200A8027E
:1002CC00E7096002EC12C002F1258002F34B000238
:1002DC00F8960002FDE100000002F1759C70801997
:1002EC00759CB88014800F759CEE800D759CF78002
:1002FC0008759CFA8003759CDC438E01438E10D2EA
:04030C00ACD2AF229E
:06045F008B218A22892393
:10046500E4FFFEAB21AA22A9238F828E83120026E8
:10047500FD600EF5993099FDC2990FBF00010E8000
:03048500E28D996C
:010488002251
:10048900E4FDFCFBFAEF30E0050DBD00010CEFC304
:1004990013FF0BBB00010AEB64084A70E87E00ED0C
:0304A9005401FFFC
:0104AC00222D
:03044F0001280081
:04001B00E4F52822BE
:04001F007528A52279
:0404E90075285A22F6
:0404ED007528AA22A2
:0404F10075285522F3
:0C045200011DFB011FAE011EFB0120AECE
:1004AD00751FAE751DFB438E805389F0438901C2C4
:0E04BD008D851D8C851F8AD2AFD2A9D28C22CC
:1004CB00751EFB7520AE438E405389F0438910C2D5
:0E04DB008F851E8D85208BD2AFD2ABD28E22A4
:100310008E248F25AB07AA06C374FF9BFF74FF9A38
:10032000FEE49400FDE49400FCE4FB7A01F9F81289
:1003300003EF8F1DAE24AF25AB07AA06C374FF9B46
:10034000FF74FF9AFEE49400FDE49400FCE4FB7A61
:0B03500001F9F81203EFAF038F1F222A
:10035B008E268F27AB07AA06C374FF9BFF74FF9AE9
:10036B00FEE49400FDE49400FCE4FB7A01F9F8123E
:10037B0003EF8F1EAE26AF27AB07AA06C374FF9BF6
:10038B00FF74FF9AFEE49400FDE49400FCE4FB7A16
:0B039B0001F9F81203EFAF038F2022DE
:10023C00020003E493A3F8E493A34003F68001F2D5
:10024C0008DFF48029E493A3F85407240CC8C333C3
:10025C00C4540F4420C8834004F456800146F6DF92
:10026C00E4800B0102040810204080900433E47EEB
:10027C00019360BCA3FF543F30E509541FFEE49387
:10028C00A360010ECF54C025E060A840B8E493A34E
:10029C00FAE493A3F8E493A3C8C582C8CAC583CA79
:1002AC00F0A3C8C582C8CAC583CADFE9DEE780BE31
:01045E00009D
:10002600BB010CE58229F582E5833AF583E022508F
:1000360006E92582F8E622BBFE06E92582F8E222D9
:0D004600E58229F582E5833AF583E49322F3
:10005300BC000BBE0029EF8DF084FFADF022E4CC91
:10006300F875F008EF2FFFEE33FEEC33FCEE9DEC5A
:10007300984005FCEE9DFE0FD5F0E9E4CEFD22EDA0
:10008300F8F5F0EE8420D21CFEADF075F008EF2FEA
:10009300FFED33FD4007985006D5F0F222C398FDDB
:0500A3000FD5F0EA2278
:1003EF00C2D5E830E70FB2D5E4C39BFBE49AFAE439
:1003FF0099F9E498F8EC30E717B2D51204251201F9
:10040F0011E4C39BFBE49AFAE499F9E498F88003AA
:10041F0012011130D50DE4C39FFFE49EFEE49DFD54
:04042F00E49CFC222B
:1000A800D083D082F8E4937012740193700DA3A3E7
:1000B80093F8740193F5828883E473740293B5F01E
:0D00C800067403936860E9A3A3A3A380D886
:1000D50075F008758200EF2FFFEE33FECD33CDCCE2
:1000E50033CCC58233C5829BED9AEC99E582984065
:1000F5000CF582EE9BFEED9AFDEC99FC0FD5F0D642
:10010500E4CEFBE4CDFAE4CCF9A88222B800C1B96B
:100115000059BA002DEC8BF084CFCECDFCE5F0CBA9
:10012500F97818EF2FFFEE33FEED33FDEC33FCEBE2
:1001350033FB10D703994004EB99FB0FD8E5E4F99D
:10014500FA227818EF2FFFEE33FEED33FDEC33FC8A
:10015500C933C910D7059BE99A4007EC9BFCE99A7E
:10016500F90FD8E0E4C9FAE4CCFB2275F010EF2FC3
:10017500FFEE33FEED33FDCC33CCC833C810D707C3
:100185009BEC9AE899400AED9BFDEC9AFCE899F8FE
:0E0195000FD5F0DAE4CDFBE4CCFAE4C8F92291
:00000001FF
